20111124-08:43:32.768 8=FIXT.1.1|9=120|35=X|52=20111124-06:44:41.007|1180=JSEFTSEP|1181=333|268=1|279=0|55=JA00|269=3|270=76.2|451=0.44|273=06:45:45.000|83=64|10=172|
20111124-08:43:32.768 8=FIXT.1.1|9=120|35=X|52=20111124-06:44:41.007|1180=JSEFTSEP|1181=334|268=1|279=0|55=JA30|269=3|270=63.27|451=0.9|273=06:45:45.000|83=64|10=180|